:020000040000FA
:100000000F01006A016A026A5B6B5E6B5D6B956A49
:10001000926A946A530ED36E80B021EF00F080B2E2
:1000200025EF00F080B43DEF00F080B649EF00F01E
:1000300080B855EF00F080BA61EF00F080BC31EF7E
:1000400000F0000E8C6E0CEF00F0820E8C6E6DECEA
:1000500000F0080E8C6E6DEC00F0000E8C6E0CEF54
:1000600000F0820E8C6E6DEC00F0200E8C6E6DEC4C
:1000700000F0000E8C6E0CEF00F0880E8C6E6DECB4
:1000800000F0200E8C6E6DEC00F0000E8C6E0CEF0C
:1000900000F0600E8C6E6DEC00F0080E8C6E6DEC56
:1000A00000F0000E8C6E0CEF00F0600E8C6E6DECAC
:1000B00000F0020E8C6E6DEC00F0000E8C6E0CEFFA
:1000C00000F0480E8C6E6DEC00F0020E8C6E6DEC44
:1000D00000F0000E8C6E0CEF00F0FA0E016EFA0EBE
:1000E000026E00000000002E71EF00F0012E6FEF95
:0400F00000F012000A
:0200F40000000A
:020000040030CA
:0100010028D6
:010003003CC0
:01000500D327
:010006008178
:00000001FF
