:020000040000FA
:100000000F01006A016A026A036A046A5B6B5E6B35
:100010005C6B956A926A936A530ED36E80B023EF3D
:1000200000F080B229EF00F080B46BEF00F080B6F2
:100030008BEF00F080B8ABEF00F080BACBEF00F0B0
:1000400080BC4BEF00F0000E8C6E000E8A6E0EEF3F
:1000500000F0820E8C6EEBEC00F0010E8A6EF8EC74
:1000600000F0000E8A6EF8EC00F0080E8C6EEBECDF
:1000700000F0010E8A6EF8EC00F0000E8A6EF8ECCB
:1000800000F0000E8C6EEBEC00F0010E8A6EF8ECC6
:1000900000F00EEF00F0820E8C6EEBEC00F0010E23
:1000A0008A6EF8EC00F0000E8A6EF8EC00F0200E7C
:1000B0008C6EEBEC00F0010E8A6EF8EC00F0000E96
:1000C0008A6EF8EC00F0000E8C6E010E8A6EF8EC71
:1000D00000F00EEF00F0880E8C6EEBEC00F0010EDD
:1000E0008A6EF8EC00F0000E8A6EF8EC00F0200E3C
:1000F0008C6EEBEC00F0010E8A6EF8EC00F0000E56
:100100008A6EF8EC00F0000E8C6E010E8A6EF8EC30
:1001100000F00EEF00F0600E8C6EEBEC00F0010EC4
:100120008A6EF8EC00F0000E8A6EF8EC00F0080E13
:100130008C6EEBEC00F0010E8A6EF8EC00F0000E15
:100140008A6EF8EC00F0000E8C6E010E8A6EF8ECF0
:1001500000F00EEF00F0600E8C6EEBEC00F0010E84
:100160008A6EF8EC00F0000E8A6EF8EC00F0020ED9
:100170008C6EEBEC00F0010E8A6EF8EC00F0000ED5
:100180008A6EF8EC00F0000E8C6E010E8A6EF8ECB0
:1001900000F00EEF00F0480E8C6EEBEC00F0010E5C
:1001A0008A6EF8EC00F0000E8A6EF8EC00F0020E99
:1001B0008C6EEBEC00F0010E8A6EF8EC00F0000E95
:1001C0008A6EF8EC00F0000E8C6E010E8A6EF8EC70
:1001D00000F00EEF00F0FA0E016EFA0E026E000053
:1001E0000000002EEFEF00F0012EEDEF00F0120006
:0E01F000032EF8EF00F0042EF8EF00F01200DE
:0201FE000000FF
:020000040030CA
:0100010028D6
:010003003CC0
:01000500D327
:010006008178
:00000001FF
